:10000000F8FF0020110400006728000067280000A6
:1000100067280000672800006728000067280000A4
:100020006728000067280000672800006728000094
:100030006728000067280000672800006728000084
:100040006728000067280000672800006728000074
:10040000FFFFFFFFFFFFFFFFFFFFFFFFFEFFFFFFFD
:1004100062B603F021FDFEE72DE9F04FA1B0824660
:10042000002017461D4602910B900DF1440B6FF012
:1004300000490AE017F8011B0298D04702900028F3
:1004400000F0A2820B98401C0B90387808B90B98EA
:100450009CE22528EED10020059006900790089098
:1004600009900A9001E040F0010017F8011F2029CF
:10047000F9D023290DD02B2904D02D2906D03029DD
:100480000AD00CE040F0020080B2EEE740F0040039
:10049000FAE740F00800F7E740F01000F4E72A29F7
:1004A0000ED12968296051F8042B2960002A0D9289
:1004B00004D5514240F004000D9180B27F1C11E040
:1004C00000210D9109E00D99494505D001EB81030B
:1004D00002EB430130390D917F1C3A78A2F13001D3
:1004E0000A29F0D339782E2903D04FF0FF310C912F
:1004F0001DE017F8011F2A2907D1296829607F1CF0
:1005000051F8042B29600C9211E000210C9109E0B4
:100510000C99494505D001EB810302EB43013039C9
:100520000C917F1C3A78A2F130010A29F0D3ADF882
:1005300038000FF6B820397800F076FD08B117F8CA
:10054000010B8DF83A009DF83A00682802BF39780F
:100550006829622005D06C2804BF38786C2803D144
:1005600071208DF83A007F1C11A8049017F8014BF8
:10057000B4F1250024D02038022840F2C580133879
:1005800000F0EB800B3800F04F81401E00F024811A
:10059000401E022840F2B880001F00F01D81401F5D
:1005A00000F08380401E00F0D880401E29D0C01E7D
:1005B0000CD0801E00F0D180C01E00F0CE803DE146
:1005C0000120059025208DF8440043E1286828602B
:1005D00050F8044B28600394DDF83080B8F1000F28
:1005E00004D5204600F02CFD804607E0424600215D
:1005F000204600F041FD08B1A0EB0408CDF81880BA
:1006000028E1296829604FF03C0851F8040B296063
:100610000021CDE9000111A80390DDE90001049C4F
:1006200011B908B90C9AC2B10206120FA0EB02125E
:100630003032D2B23A2AA8BF27320009A8F101030A
:1006400040EA017009091A5508BF0028984604D0ED
:10065000039A08EB04039A42E6D308EB04000390E4
:10066000C8F13C010C980691814209DA401A0890C1
:100670004FF6EF71BDF838000840ADF83800E9E0FA
:10068000002840F1E7809DF8380000F014001028A1
:1006900040F0E0800D98059A801A089A801A401A56
:1006A0000128C0F2D7800890D4E09DF83A00622873
:1006B0001AD0682806D06A280CD06C281CD0712863
:1006C00008D019E02868286050F8041B28600B98AF
:1006D0000880BFE02868286050F8042B28600B9839
:1006E000C117C2E90001B5E02868286050F8041B72
:1006F00028600B980870ADE02868286050F8041B4B
:1007000028600B980860A5E02868C01D20F007024B
:100710002A60D2E9000108322A60CDE900010029EF
:1007200003D5012005902D200CE0BDF8380081078D
:1007300003D5012005902B2004E0C00704D501203B
:10074000059020208DF84400059911A80818039001
:10075000214600A800F0D8F97CE09DF83A206C2AE8
:100760000DD0712A18BF6A2A09D12868C01D20F04F
:1007700007032B60D3E9000108332B6005E02968EB
:10078000296051F8040B29600021CDE90001682A95
:1007900008BF80B207D0622A08BFC0B203D0742A53
:1007A00018BF7A2A02D10021CDE900019DF8380056
:1007B000000730D5DDE90001002908BF00282AD054
:1007C00044F02000782826D130208DF844008BF8A2
:1007D0000140022005901EE09DF83A00294600F0F5
:1007E000D8F8CDE90001002904DA0598411C0591EB
:1007F0002D210EE0BDF83800810704D50598411C75
:1008000005912B2105E0C00705D50598411C0591F0
:10081000202100F80B10059911A808180390214613
:1008200000A800F0EDF815E0012005902868286088
:1008300050F8041B28608DF844100BE0012005904F
:100840002520002C8DF8440004D00598411C05910A
:1008500000F80B400D980599401A0899401A06991E
:10086000401A0999401A0799401A0A99A0EB010801
:100870009DF8380040070FD420208DF84000002458
:1008800008E0012310AA00A9504600F098FB0028B8
:100890007AD1641C4445F4DB059C11AE0AE016F8DD
:1008A000011B0298D047029000286DD00B98401C85
:1008B0000B90641E002CF2D130208DF840000026F1
:1008C000089C08E0012310AA00A9504600F077FB1D
:1008D000002859D1761CA642F4DB069C039E0AE050
:1008E00016F8011B0298D047029000284CD00B98B4
:1008F000401C0B90641E002CF2D130208DF840007B
:100900000026099C07E0012310AA00A9504600F028
:1009100056FBC8BB761CA642F5DB03980699079CDC
:100920000E1809E016F8011B0298D047029058B340
:100930000B98401C0B90641E002CF3D130208DF8D6
:10094000400000260A9C07E0012310AA00A9504697
:1009500000F035FBC0B9761CA642F5DB9DF83800E7
:1009600040077FF572AD20208DF84000002400E0A4
:10097000641C4445BFF669AD012310AA00A9504686
:1009800000F01DFB0028F3D04FF0FF3021B0BDE890
:10099000F08F622826D068281DD06A2808D06C28DD
:1009A00027D0712804D0742823D07A280CD020E0D6
:1009B0000868C01D20F007000860D0E90023083057
:1009C00008601946104670470A680A6052F8040B1E
:1009D0000A60002170470A680A6052F8040B0A6036
:1009E00000B20BE00A680A6052F8040B0A6040B2D9
:1009F00004E00A680A6052F8040B0A60C1177047E5
:100A00002DE9FA4E05460A462F696F2A08BF0824C9
:100A100005D041F02000782814BF0A2410243C2679
:100A2000D5E90001642A18BF692A81468A4605D1A2
:100A3000002903DAD9F100096AEB4A0ABAF1000F7A
:100A400008BFB9F1000F0CD1286B50B9082C36D172
:100A500095F83800000732D530203B2687F83B0058
:100A60002DE0E31748465146224600F031FBA4FB37
:100A70000023A9EB02023032D2B2A6F1010B3A2ACE
:100A80005E4603DB9DF80030513B9A1881465FEAD1
:100A9000010A0BF8072008BFB9F1000F03D0E8687E
:100AA000F1198842DDD3082C09D195F838000007E8
:100AB00005D5F05D302802D0761E3020F055C6F105
:100AC0003C00A861F119E960296B884208DA081A2C
:100AD00028624FF6EF71288F08402887BDE8F38E13
:100AE00000290ED595F8381001F01401102908D10D
:100AF000696B6A69891A2A6A891A081A0128A8BFC3
:100B00002862BDE8F38E00002DE9F34F8BB0D0E9E9
:100B10000089006B002801AF48BF062005D404BF40
:100B200041F02000672802D101200B99086340F2B0
:100B3000FF720B984168C1F30A50904220D108031C
:100B400002BF0B98006800280AD10B990320886126
:100B50009DF8300061381A2858D30FF2A44109E0FB
:100B60000B99032088619DF8300061381A284AD318
:100B70000FF284410B98C068032200F021FB00E1D2
:100B8000012807DA0B9800F056FB012802DB00234E
:100B90000026EDE00B9ADFF854B1526840F2FE31C6
:100BA00061F31E520B994A6040F2FE31461A4046EC
:100BB00049460022002300F05FFB38BF89F000495E
:100BC00036B247F297507043494990FBF1F636B27E
:100BD000C6F10707012F92461BDBF80707D55246DF
:100BE0005B464046494600F05FFB804689467F10E1
:100BF0005046594652465B4600F056FB002F82464F
:100C00008B46EAD126E00FF2EC31B3E70FF2EC317C
:100C1000B0E77F420024374D12E0F80707D552466F
:100C20005B462046294600F03FFB04460D467F10F8
:100C30005046594652465B4600F036FB82468B468C
:100C4000002FEAD14046494622462B4600F0FEFBE3
:100C5000804689469DF830000B99DFF89CB0096BFF
:100C600040F02005662D0CBF06F10A00062047184B
:100C7000142FA8BF132730208DF804000DF10504B0
:100C8000012F3BDB4046494600F004FD014604F1DC
:100C9000080204234FF00A0CB1FBFCFC0CEB8C04A3
:100CA000A1EB4401303102F8011D0A21BCFBF1FE29
:100CB0000EEB8E04ACEB440430345B1E714602F83C
:100CC000014DE7D1083F012F02F10804D8DB00F005
:100CD000F7FC02460B464046494600F0FFFC002266
:100CE0005B4600F0E1FA80468946CBE700002440ED
:100CF000A08601000000F03F84D797410DF1050068
:100D0000201A0DF1050702E0401E761E7F1C39787F
:100D10003029F9D0662D02D136B2711C03E0652D61
:100D20000CBF012100210B9A126B8B181BB2984249
:100D3000B8BF03461BB219001AD4814204DAC85D59
:100D40003528A8BF392000DA3020CA19521E00E029
:100D50005B1E12F80159491E8542F9D0392802D18B
:100D6000C85D401CC855002902D57F1E5B1C761C3F
:100D700036B29DF830100B9800961BB23A4600F040
:100D800003F80DB0BDE8F08F2DE9F04786B00646B8
:100D90008A4690461D4600F07EFD406A376B90F80B
:100DA0000090012D02DA01250FF258284AF02000A8
:100DB000BDF93840662808BF641C13D0672840F08E
:100DC000888014F1040F73DBBC4271DA96F83800A6
:100DD000641C000702D4BD42B8BF2F4624B23F1B9B
:100DE00048BF002724B2F068B169012C21DA4A1CFF
:100DF00030230B54012F03DA96F83810090702D577
:100E000002F80090521CE742B8BF7C4224B2614213
:100E1000E719AF42B261B8BF3D4671622DB2F561CC
:100E20002A46B3694146181800F0CAF9781BB06227
:100E3000AEE00818A54216DA2A46414600F0C0F98D
:100E4000B1696918601BB161012F706203DA96F80D
:100E50003800000705D5F06801F80090F069401CE3
:100E6000F061B76294E02246414600F0A9F9B0690A
:100E700020182D1B012F03DA96F83810090703D527
:100E8000F16800F80190401CB0612DB2AF42B8BFCC
:100E90003D46F068B3692DB22A4604EB08011818E4
:100EA00000F08EF9B0692818B061781B70626FE0AD
:100EB000BD4204DA96F83810090758BF2F467F1E46
:100EC00048BF0027BAF1670F0CBF4FF0650A4FF01B
:100ED000450AB169F06818F8013B0B544A1C012F10
:100EE00005DA96F83810090758BFB26115D502F82F
:100EF0000090531C012FB3610FDB6D1E2DB2AF426A
:100F0000B8BF3D462DB22A464146181800F058F9A0
:100F1000B0692818B061781B7062F068B16901EBA4
:100F20000008200008F801AB03D42B2008F8010BBF
:100F300003E02D2108F8011B6442002502AF08E000
:100F40000A2200A800F0C0FC019807F8010B6D1CF4
:100F5000009C21B20129F3DA022D06DA4AF02000C2
:100F6000652804BF302008F8010B4DB9302008F87F
:100F7000010B07E06D1E02A8285C303008F8010B59
:100F8000012DF7DAF068B1690818A8EB0000F061EC
:100F900096F8380000F0140010280DD17069B1697E
:100FA0000818716A0818F1690818B16A0818716B95
:100FB0008842BCBF081A306206B0BDE8F087F8B5B9
:100FC00004460D4616461F46002004E0E86A401C11
:100FD000E8627F1E002047B116F8011BA868A047F1
:100FE000A8600028F2D14FF0FF30F2BD686A6C743F
:100FF0007A4C00006E616E004E414E00696E6600D4
:10100000494E4600300050F8041B61B150F8042BE3
:10101000D30744BFA9F101039A180023091F42F81E
:10102000043BFAD1EFE770470278C9B28A421AB19D
:101030001CBF10F8012FF9E718BF0020704700000F
:1010400000F10103810704D010F8011B89B1810769
:10105000FAD10268B2F10131914311F0803F04BF2F
:1010600050F8042FF6E710F8011B11B110F8011B1E
:10107000FBE7C01A70470000C9B2830706D0521EB2
:1010800022D310F8013B9942F7D11FE0083A13D35D
:1010900002F1040241EA012141EA014150F8043B16
:1010A000121F21BF4B40A3F1013C2CEA030C1CF0A2
:1010B000803FF3D0C9B2001F083210F8013B521E26
:1010C00028BF91EA030FF8D818BF0120401E7047CF
:1010D0001B4213D1094236D12AB18446B0FBF2F04B
:1010E00002FB10C2704700F0F7BBFCD300220023C4
:1010F00070470B000200002100207047904271EB06
:10110000030CF6D370B5B1FA81F4B3FA83F52C1B56
:10111000A340C4F1200532FA05F63343A2405FF044
:101120000046E64002E05B085FEA3202841A71EB97
:10113000030524BF204629467641F4D302000B0064
:101140003000002170BD012ACFD970B5140C20D019
:10115000B1FA81F4B2FA82F5C4F120046419B4F151
:101160002006D6D3B2405FF00044F440002502E0F0
:1011700052085FEA3303C61A71EB020E24BF3046F1
:10118000714664416D41F3D302000B002000290039
:1011900070BD0C46B1FBF2F102FB11452D0445EA8E
:1011A0001045B5FBF2F402FB145580B240EA054548
:1011B000B5FBF2F002FB105240EA044070BD0000A3
:1011C00062B38B0708D0521E11F8013B00F8013BB7
:1011D00000F024808B07F6D1830740F0208000BF09
:1011E000103A07D330B4B1E83810103AA0E83810FC
:1011F000F9D230BC530724BFB1E80810A0E80810AA
:1012000044BF51F8043B40F8043BD20724BF31F8F7
:10121000022B20F8022B44BF0B7803707047083A6A
:1012200007D3B1E80810083A40F8043B40F804CB73
:10123000F7D25307E4E730B4436803F000420121DA
:101240001B031B0B436004BF0368002B08D10DE098
:101250000368DD0F45EA440444605B000360491EF7
:101260004468E302F4D523031B0B436043681A432D
:101270004260084630BC70474FF4001C1CEB410F25
:1012800094BF1CEB430F09E041EA030C50EA4C0CFD
:1012900052EA0C0C03D2994208BF9042704714BF27
:1012A0008B42824270470000B0B581EA030C0CF01B
:1012B000004C40F2FF7515EA11541DBF15EA135793
:1012C000AC42AF4239E0E41923EA455343F48013BA
:1012D000C90241F0004141EA505EC7021100A7FB7C
:1012E000020200284FF00000EEFB01204FF0000149
:1012F000E3FB072118BF42F00102401800214941D9
:10130000E3FB0E01A4F580640F0302D252004041BA
:10131000494154F101046CDD470872F1004250F17B
:10132000000051EB0451A1F580115CBF41EA0C01B2
:10133000B0BD4CEA05510020B0BD05EA1357AC42E0
:1013400014BFAF4241E050EA410E1CBF52EA430EC7
:1013500002E061460020B0BD24423C441BD15FEA5C
:10136000070EF6D0090302BF01460020AEF1140EAD
:10137000B1FA81F7AEEB070401FA07FE0C37C7F1AB
:10138000200100FA07F7C8404EEA000E23EA455351
:1013900043F48013A2E733F00043B3FA83F704BFAA
:1013A000B2FA82FE77440B3FE41BB7F1200E2FBF49
:1013B00002FA0EF3BB40C7F1200E22FA0EFE38BF30
:1013C00043EA0E03BA40641C82E750EA410E14BFA0
:1013D00052EA430E6FF000014FF4001717EB430F72
:1013E0008ABF194617EB410FB5E74CEA05510020BB
:1013F000B0BDD4F10104B4F120070FDAC4F1200725
:10140000520828BF42F0010210FA07F501FA07F767
:10141000E1BF2A43E0403843E1400FE0352C98DC3F
:10142000C7F1200452EA400220FA07F218BF42F046
:10143000010231FA07F0A1400A43002172F1004293
:1014400050F1000051EB0C01B0BD0000F0B540F2CE
:10145000FF7581EA030C0CF0004C15EA11541DBF16
:1014600015EA1357AC42AF42E5E0BC41C1F31301AA
:10147000C3F31303801A994143F4801304D2641E0A
:101480004000494180185941C90241EA5051B1FB1D
:10149000F3F603FB1611A2FB0675D7EBC020A9419A
:1014A00002D2761E80185941C90241EA5051B1FB5F
:1014B000F3FE03FB1E11A2FB0E75D7EBC020A94162
:1014C00003D2AEF1010E80185941890241EA9051D0
:1014D000760546EA8E2EB1FBF3F603FB1611A2FB4E
:1014E0000675D7EB8020A94102D2761E801859419B
:1014F000C90241EA50514EEA060EB1FBF3F603FB76
:101500001611A2FB0675D7EBC020A94102D2761EA8
:1015100080185941C90241EA5051B1FBF3F703FB6E
:101520001711A2FB0735D3EBC020A94167F10007D3
:101530000CBF004247F0010766F3D5274FEA1E3182
:10154000B80814F5806412DDBD0775F1004250EB58
:101550000E5051EB045111F5801F5CBF41EA0C01A4
:10156000F0BD4CF07F6141F0E0410020F0BDBD07CF
:101570006D0840EA0E5041F48011D4F10104B4F139
:1015800020060ADAC4F120060200E04001FA06F360
:10159000E1401843B24015430EE0342C13DCC6F191
:1015A000200445EA40056D0820FA06F2154321FAA9
:1015B00006F0A1400D43002175F1004250F10000FA
:1015C00051EB0C01F0BD00205FEA0C01F0BDCFB97A
:1015D00092185B41B3FA83F704BFB2FA82F6BF19DF
:1015E0000B3FB7F120062FBF02FA06F3BB40C7F14D
:1015F000200622FA06F638BF3343BA401CB1E4197C
:10160000641E33E77F4231F00041B1FA81F404BF38
:10161000B0FA80F6A4190B3CB4F120062FBF00FAF3
:1016200006F1A140C4F1200620FA06F638BF314386
:10163000A0403C1B1AE7AC421ABF05EA1357AF4261
:1016400012E050EA41061CBF52EA4306BFE750EAE7
:101650004107304661461CBF41EA0551F0BD52EAE0
:10166000430C08BFC143F0BD00204FF4001616EB39
:10167000410F98BF16EB430F08BF16EB410F24BF75
:10168000C14305E016EB430F0CBF61464CEA055120
:10169000F0BD0000400D40EAC120490080F00D80FF
:1016A00040F00040490DA1F58061491C05D4D1F1FD
:1016B0001F0154BFC840C01770474FF0000070476B
:1016C000010000BF09D0B0FA80F18840C91CC1F503
:1016D0008461090501EBD0214005704770B44FF0DB
:1016E000004591EA030F44BF6B4000F0F7B800BF1C
:1016F000841A71EB030604D26E40001BB14112192B
:1017000073414FF4001C1CEB410F34BF7CEB4306CC
:1017100084E00C0DA4EB1356362E7DDC012E43DC49
:1017200045EAC32343EA525312BFD20292025B0836
:10173000240545EAC12141EA5051D2EBC02099412C
:1017400025D407D1B0FA80F610FA06F164D0002053
:10175000203608E0B1FA81F6B140C6F1200220FA45
:1017600002F21143B0404FEAF474B4EB465434F043
:1017700001064FEA74040AD8D6F50016760D04F077
:101780000044F04061FA06F25040F1404840C00A7F
:1017900040EA415021F0004128BF5FEA500550F176
:1017A000000044EBD12137E045EAC323DB0A45EAD8
:1017B000C121C90AB6F120050EDD42EA0242120C2F
:1017C000C5F1200603FA06F6EB4042EA06056D4233
:1017D000984161F100010DE062FA06F5F2405540D2
:1017E00063FA06FC82EA0C02F3405A406D429041D3
:1017F00061EB030111F4801F05D1641E620502D064
:101800006D004041494121F48011430875F10043C6
:1018100050F1000041EB045170BC70471CEB410FCC
:1018200015D223F0004352EA43060BD04FEA4C0C8A
:10183000BCEB410F04D80C0D661E342EB7DDEBE770
:10184000801A994150EA410608BF0021E4E708BF29
:101850001CEB430F28BF6FF00001DDE780B5134894
:1018600000F0A6F80FF24801016041608160C1609C
:101870000161416181610FF23C0242628162C16299
:10188000016341630FF2300282630FF23402C263DC
:101890000164416401BD10B5044800F089F80446B4
:1018A000206808B9FFF7DAFF204610BD700EFF1F51
:1018B000000000002E00000066616C7365000000EF
:1018C000747275650000000091FBF2F303FB1211C6
:1018D000C0E900317047000070470000841A71EBC6
:1018E000030603D2001BB141121973414FF4001CCF
:1018F0001CEB410F34BF7CEB430443E00C0DA4EB25
:101900001356352E50DC45EAC323DB0A45EAC121D4
:10191000C912B6F120050DDD63FA05F6EB4086EA43
:101920000305124218BF45F00105C01851F100012E
:101930000CD213E062FA06F5F2405540F3415A40EA
:10194000B340F3405A408018594107D349085FEA31
:1019500030005FEA350528BF45F0010501F580112B
:10196000420875F1004250F1000041EB045170BC97
:101970004FF4001C1CEB410F38BF70470020090DCD
:10198000090570471CEB410F10D252EA43060BD0F9
:10199000BCEB410F05D80C0DAB43661E342EB5DDF4
:1019A00002E0AB438018594170BC704770BC70476F
:1019B0007047000000B0034000B00B400000000082
:1019C0000000000000000000000000000000000017
:1019D000000000000000000000004E6F6E4D6173BB
:1019E0006B61626C6500000000486172644661755D
:1019F0006C740000000000004D656D4D616E616704
:101A0000656D656E7400004275734661756C740097
:101A100000000000000055736167654661756C74D5
:101A200000000000000000000000000000000000B6
:101A300000000000000000000000000000000000A6
:101A40000000000000000000000000000000000096
:101A50000000000000000000000000000000000086
:101A600000535643616C6C00000000000000000051
:101A700044656275674D6F6E69746F720000000097
:101A800000000000000000000000000000005065A1
:101A90006E6453560000000000000000005379738C
:101AA0005469636B0000000000000000444D4130A9
:101AB0000000000000000000000000444D41310023
:101AC00000000000000000000000444D4132000012
:101AD000000000000000000000444D413300000001
:101AE0000000000000000000444D413400000000F0
:101AF00000000000000000444D41350000000000DF
:101B0000000000000000444D4136000000000000CD
:101B10000000000000444D413700000000000000BC
:101B200000000000444D41380000000000000000AB
:101B3000000000444D41390000000000000000009A
:101B40000000444D41313000000000000000000062
:101B500000444D4131310000000000000000000051
:101B6000444D4131320000000000000000000044FC
:101B70004D41313300000000000000000000444DE2
:101B800041313400000000000000000000444D41DD
:101B9000313500000000000000000000444D415FAE
:101BA0004572726F720000000000004D434D00004E
:101BB000000000000000000000004654464C0000F9
:101BC000000000000000000000526561645F436F88
:101BD0006C6C6973696F6E004C56445F4C565700CD
:101BE000000000000000004C4C5700000000000006
:101BF0000000000000005761746368646F670000B4
:101C00000000000000524E470000000000000000ED
:101C100000000000493243300000000000000000D6
:101C200000000049324331000000000000000000C5
:101C30000000535049300000000000000000000088
:101C40000053504931000000000000000000000077
:101C50005350493200000000000000000000004323
:101C6000414E305F4F525F4D425F627566004341A7
:101C70004E305F4275735F4F666600000043414E11
:101C8000305F4572726F72000000000043414E30B9
:101C90005F54785F5761726E696E6743414E305F83
:101CA00052785F5761726E696E6743414E305F577D
:101CB000616B655F557000000052657365727665F3
:101CC000643531000000000052657365727665640A
:101CD0003532000000000043414E315F4F525F4DEE
:101CE000425F6275660043414E315F4275735F4FDC
:101CF000666600000043414E315F4572726F7200AC
:101D00000000000043414E315F54785F5761726EAE
:101D1000696E6743414E315F52785F5761726E69F9
:101D20006E6743414E315F57616B655F55700000D0
:101D300000526573657276656435390000000000F5
:101D40005265736572766564363000000000005598
:101D5000415254305F52585F5458000000005541C2
:101D60005254305F4552520000000000005541526D
:101D700054315F52585F545800000000554152548E
:101D8000315F45525200000000000055415254326C
:101D90005F52585F54580000000055415254325F62
:101DA00045525200000000000055415254335F522A
:101DB000585F54580000000055415254335F45525B
:101DC0005200000000000055415254345F52585FE9
:101DD00054580000000055415254345F455252009F
:101DE000000000000055415254355F52585F54586E
:101DF0000000000055415254355F4552520000002A
:101E000000000041444330000000000000000000DA
:101E100000004144433100000000000000000000C9
:101E200000434D50300000000000000000000000A2
:101E3000434D50310000000000000000000000434E
:101E40004D50320000000000000000000000465429
:101E50004D30000000000000000000000046544D1E
:101E600031000000000000000000000046544D3228
:101E70000000000000000000000000434D5400007E
:101E80000000000000000000000052544300000069
:101E90000000000000000000005265736572766566
:101EA0006438330000000000504954300000000046
:101EB0000000000000000050495431000000000004
:101EC00000000000000050495432000000000000F3
:101ED00000000000005049543300000000000000E2
:101EE00000000000504442300000000000000000EC
:101EF00000000055534230000000000000000000C8
:101F0000000055534244434400000000000000001C
:101F100000454E45545F313538385F54696D657200
:101F2000454E45545F5472616E736D69740000458F
:101F30004E45545F52656365697665000000454E05
:101F400045545F4572726F720000000000493253C1
:101F5000300000000000000000000000534448432F
:101F60000000000000000000000000444143300079
:101F70000000000000000000000044414331000068
:101F80000000000000000000005453493000000031
:101F900000000000000000004D434700000000006A
:101FA000000000000000004C5054696D6572000094
:101FB0000000000000005265736572766564313080
:101FC0003200000000504F52544100000000000059
:101FD00000000000504F525442000000000000007A
:101FE000000000504F525443000000000000000069
:101FF0000000504F52544400000000000000000058
:1020000000504F5254450000000000000000000046
:102010005265736572766564313038000000005295
:102020006573657276656431303900000000526571
:10203000736572766564313130000000005265735B
:102040006572766564313131000000005265736558
:10205000727665643131320000000052657365723A
:102060007665643131330000000052657365727625
:102070006564313134000000005265736572766525
:102080006431313500000000526573657276656415
:102090003131360000000052657365727665643137
:1020A0003137000000005265736572766564313126
:1020B000380000000052657365727665643131390D
:1020C00000000000008003400090034000800B40AF
:1020D00000F00F4040F00F4080F00F40C0F00F4084
:1020E00000F10F40F0000A1D300018003200180106
:1020F000600018186400181A6E00181F7800131872
:102100007D00131A8200131C8C000E1296000E150F
:10211000A0000E18AA000E1BB4000E1EC8000C1C56
:10212000E1000B1EFA000A1F00010908009004409C
:1021300000A0044000B0044000C0044000D00440AF
:1021400000A0064000B0064000C0064000D0064097
:1021500000A00E4000B00E400000704200008C4213
:10216000000070410000F0426A6E6B6C6F6D4E4F64
:102170003435363702040101100EFF1F600EFF1FB9
:10218000100EFF1F100EFF1F100EFF1F0D0CFF1F64
:10219000F40BFF1F00000000000000000000000022
:1021A000000000000000000000000000000000002F
:1021B0000000000038B504000D0064B2002C03D00C
:1021C000022C66D049D380E0DFF8D404006850F0D8
:1021D0008070DFF8CC1408606DB2002D0BD0022D9A
:1021E00015D00ED3042D1ED017D3062D27D020D303
:1021F000072D2AD02FE04FF48061412000F05CFAD7
:102200002AE04FF44071042000F056FA24E04FF425
:102210004071052000F050FA1EE04FF44071062096
:1022200000F04AFA18E04FF44071072000F044FA39
:1022300012E04FF48061652000F03EFA0CE04FF4AC
:102240008061662000F038FA06E04FF48061672074
:1022500000F032FA00E038E037E0DFF844040068CC
:1022600050F00070DFF8381408606DB2002D02D015
:10227000012D06D00BE04FF440710C2000F01CFA49
:1022800006E04FF440710D2000F016FA00E01CE06B
:102290001BE0DFF81004006850F08070DFF80414D1
:1022A00008606DB2002D02D0012D06D00BE04FF476
:1022B00040710A2000F000FA06E04FF440710B2054
:1022C00000F0FAF900E000E0FFE731BD2DE9F84F3A
:1022D00004000D0016001F0064B2002C0ED064B282
:1022E000012C02D064B2022C02D16DB2022D05DBAA
:1022F00040F28511DFF8B00300F04BFA290049B233
:10230000200040B2FFF756FFDFF8A00300684FF44B
:102310007A71484380465FEA1840B0FBF6F0814688
:10232000002082461FFA89F9484650FA0AF001282F
:1023300002DB1AF1010AF5E75FFA8AFABAF1080F2F
:1023400005DB4FF4D071DFF8600300F022FA40465D
:1023500030FA0AF0B0FBF6F081461FFA89F9DFF88F
:10236000500364B240F8249064B2002C03D0022CD5
:1023700019D00CD323E01FFA89F919F1010000FBF1
:1023800007F04FF47A71B0FBF1F0834617E01FFAC3
:1023900089F919F1010000FB07F04FF47A71B0FBE5
:1023A000F1F083460BE01FFA89F919F1010000FBF7
:1023B00007F04FF47A71B0FBF1F08346FFE7DFF8E6
:1023C000F40264B250F824006DB210EBC500DFF8DF
:1023D000E41264B251F824106DB211EBC501C96862
:1023E00031F00401C160DFF8CC0264B250F824007F
:1023F0006DB210EBC5002821C1605FFA8AFA1AF0AD
:10240000070050F00800DFF8AC1264B251F8241055
:1024100008601FFA89F9DFF89C0264B250F82400C2
:10242000C0F808900020DFF88C1264B251F8241034
:10243000C864DFF8800264B250F824006DB210EB7B
:10244000C5001FFA8BFBC0F810B00020DFF8641243
:1024500064B251F824104860BDE8F18F2DE9F041D5
:1024600004000D0016005FF0000864B2002C0ED0CE
:1024700064B2012C02D064B2022C02D16DB2022DE2
:1024800005DB4FF4F371DFF8200200F082F964B24B
:10249000002C03D0022C15D00AD31DE0B6F57A7FAC
:1024A00005D94FF4F671DFF8000200F072F913E07D
:1024B000B6F57A7F05D94FF4F871DFF8EC0100F03A
:1024C00068F909E0B6F57A7F05D94FF4FA71DFF8BB
:1024D000D80100F05EF9FFE7DFF8D40164B250F8EC
:1024E0002400804664B2002C03D0022C15D00AD3FD
:1024F0001DE018F1010000FB06F04FF47A71B0FB0B
:10250000F1F0070013E018F1010000FB06F04FF4B2
:102510007A71B0FBF1F0070009E018F1010000FB4F
:1025200006F04FF47A71B0FBF1F00700FFE7DFF837
:10253000840164B250F824006DB210EBC50007614D
:10254000BDE8F08110B5040064B2012C07D064B27C
:10255000022C04D040F2DB21534800F01AF964B297
:102560002000012802D0022811D021E04C48006848
:1025700050F000704A4908604FF4E0610C2000F010
:102580009BF84FF4E0610D2000F096F815E0454807
:10259000006850F08070434908604FF4C0610A2021
:1025A00000F08AF84FF4C0610B2000F085F804E0D9
:1025B00040F213313C4800F0ECF83E4864B250F869
:1025C0002400406D50F004003A4964B251F82410E0
:1025D0004865384864B250F82400D0F8800050F0C4
:1025E0000800344964B251F82410C1F8800000207A
:1025F000304964B251F82410C8644FF6FF702D4979
:1026000064B251F8241088602A4864B250F824005B
:10261000D0F8800050F00100264964B251F824102F
:10262000C1F88000234864B250F82400406D50F097
:102630000100204964B251F82410486500201D496A
:1026400064B251F82410486010BD38B5040064B27B
:10265000012C07D064B2022C04D04FF44C71124804
:1026600000F097F8134864B250F824004068050061
:10267000280000B232BD10B5040064B2012C07D0AE
:1026800064B2022C04D040F23E31074800F081F8D9
:102690000020084964B251F82410486010BD0000C1
:1026A0003C80044030800440F04000000C0EFF1FCE
:1026B000E00DFF1F200BFF1F10B4294A12684FF4D2
:1026C0000073C0B24409A3401A43254B1A60254A3F
:1026D000C0B2431152F82320012310F01F04A3407D
:1026E000C2F8A0301F4AC0B2431152F82320C0B232
:1026F00010F01F0342F8231010BC704710B4184AA2
:1027000012684FF40073C0B24409A3401A43144B3B
:102710001A60144AC0B2431152F82320012310F06A
:102720001F04A340C2F8A03031F4E0610D4AC0B2EA
:10273000431152F82320C0B210F01F0352F8232097
:1027400012F4E0621143074AC0B2431152F8232049
:10275000C0B210F01F0342F8231010BC70470000F5
:1027600038800440880BFF1FDFF800F0410CFF1F8A
:10277000DFF800F0710CFF1FBFF34F8F4648006871
:1027800010F4E0604549084343490860BFF34F8FA8
:10279000FEE738B504000D00002000F08DF82A0097
:1027A00021003F4800F0C0F8002000F0A2F84FF4EC
:1027B0007A7000F0E6F8F2E738B504000D00210069
:1027C00049B2042000F0FEF9200032BD10B500240B
:1027D000042000F011FA042000F044FA002841D14E
:1027E000002000F069F8042000F03CFA012801D133
:1027F00001200400002000F07CF82A4800F094F842
:102800004FF4FA7000F0BDF8E4B2012CEBD10420D3
:1028100000F028FA0028E6D1042000F023FA00286E
:1028200006D1002000F065F8642000F0AAF8F3E774
:10283000042000F017FA012806D1002000F059F812
:10284000322000F09EF8F3E7174800F06DF8FFF72C
:102850008BFF642000F095F80020FFF789FFFFF759
:102860008BFFC0E710BD10B510480468012000F0D0
:1028700023F8012000F03DF80D48E4B20F2101FBE0
:102880000402E4B221000B4800F04EF84FF47A70D5
:1028900000F077F8EDE700000CED00E00400FA0529
:1028A00030430000E44300006443000004ED00E016
:1028B0001804FF1FCC42000010B5040064B2042CC1
:1028C00007DA01220121174864B2205C00F0E2F926
:1028D0000EE0042004002000441E40B2002807D06F
:1028E000012201210F4864B2205C00F0D3F9F2E725
:1028F00010BD10B5040064B2042C05DA094864B2B6
:10290000205C00F01EFA0CE0042004002000441EAD
:1029100040B2002805D0034864B2205C00F011FAF0
:10292000F4E710BDCC0BFF1F0EB400B582B003A9B5
:102930000091024600AB0121034878440A30FDF7BC
:102940006BFD06BC5DF810FB791A000010B50400A1
:10295000002C15D0B4F1807F03D329210F48FFF755
:1029600018FF00200E4908600E48046000200E4940
:10297000086005200A49086009480068C003FBD5C3
:1029800010BD10B504002000441E002804D00748E4
:102990000068FFF7DBFFF6E710BD00002C400000E9
:1029A00010E000E014E000E018E000E0040EFF1F7B
:1029B0002DE9F84304000D0064B2002C08D0022C6D
:1029C0002CD018D3042C4FD03BD3052C5FD071E012
:1029D000DFF80C02006850F48060DFF80412086031
:1029E0004FF440716620FFF767FE4FF44071672097
:1029F000FFF762FE5EE0DFF8E801006850F4006077
:102A0000DFF8DC1108604FF440714320FFF754FEFB
:102A10004FF440714420FFF74FFE4BE0DFF8C00158
:102A2000006850F48050DFF8B81108604FF440712E
:102A30006320FFF741FE4FF440716220FFF73CFE38
:102A400038E0DFF89C01006850F40050DFF8901186
:102A500008604FF440715020FFF72EFE4FF4407194
:102A60005120FFF729FE25E0DFF87801006850F4D7
:102A70008060DFF8701108604FF440719920FFF713
:102A80001BFE4FF440719820FFF716FE12E0DFF8AE
:102A90005401006850F40060DFF8481108604FF4FA
:102AA00040718920FFF708FE4FF440718820FFF73E
:102AB00003FEFFE7DFF8300164B250F82400C0786D
:102AC00010F0F300DFF8201164B251F82410C87040
:102AD000DFF8140164B250F824008078DFF80811A0
:102AE00064B251F82410887064B2002C02D064B231
:102AF000012C07D1DFF8F40000684FF47A714843E5
:102B0000814606E0DFF8E80000684FF47A71484338
:102B100081462801B9FBF0F00600B6B2B6F5005FB9
:102B200002DB41F6FF700600B9FBF5F0B6B2B0EB80
:102B300006100700BFB2202F03DBDC212D48FFF772
:102B400028FE294864B250F82400007810F0E00014
:102B50008046C6F3042050EA0800234964B251F8C5
:102B600024100870204864B250F8240046701E48B3
:102B700064B250F82400807A10F0E000804617F02C
:102B80001F0050EA0800184964B251F824108872F6
:102B9000154864B250F82400007C50F088001249B7
:102BA00064B251F8241008740F4864B250F824003D
:102BB000C07850F00C000C4964B251F82410C87071
:102BC000BDE8F183084A40B252F82020127912067B
:102BD000F8D5054A40B252F82020D1717047000064
:102BE00034800440288004409C0BFF1F040EFF1F0C
:102BF0000C0EFF1F1042000010B5040064B2082C38
:102C00000DDA00220021224864B2205C00F042F874
:102C100003211F4864B2205CFFF770FD14E0082018
:102C200004002000441E40B200280DD000220021E4
:102C3000174864B2205C00F02DF80321144864B2F8
:102C4000205CFFF75BFDECE710BD10B504001048F9
:102C500064B2205C00F092F8002801D1002000E06E
:102C6000012010BD10B50400200040B2FFF7EDFFB9
:102C700000280AD10A20FFF784FE200040B2FFF7A7
:102C8000E4FF002801D1002000E0012010BD000079
:102C9000C40BFF1F70B504000D0016004FF48071C7
:102CA0002000C0B2FFF708FD6DB2002D11D14348DE
:102CB000E4B2611150F821004049E4B2621151F8C8
:102CC00022104969012214F01F039A409143416187
:102CD00036E03A48E4B2611150F821003749E4B2D5
:102CE000621151F822104969012214F01F039A4021
:102CF00011434161F6B2002E11D13048E4B26111A6
:102D000050F821000068012114F01F02914088430F
:102D10002A49E4B2621151F82210086010E02748F5
:102D2000E4B2611150F821000068012114F01F0283
:102D3000914008432149E4B2621151F82210086021
:102D400070BD10B504001D48E4B2611150F82100B7
:102D5000406914F01F010200CA40D00703D47B2150
:102D60001748FFF716FD1548E4B2611150F821002D
:102D7000012114F01F029140C16010BD10B5040084
:102D80000E48E4B2611150F82100406914F01F01AF
:102D90000200CA40D00703D58C210948FFF7F9FC8F
:102DA0000648E4B2611150F82100006914F01F01D7
:102DB0000200CA4012F0010010BD00002C0BFF1FE2
:102DC00050410000DFF800F0890DFF1FDFF8A81365
:102DD00040B231F8201040B20128C0F2738140B2F5
:102DE000112880F26F810022DFF890331A7089B2C7
:102DF0005B2904DA0022DFF884335A7080E089B25C
:102E0000B52904DA0122DFF874335A7078E089B208
:102E1000B1F5877F04DC0222DFF860335A706FE07F
:102E200089B2B1F5B47F04DC0322DFF850335A7065
:102E300066E089B2B1F5E17F04DC0422DFF83C33BF
:102E40005A705DE089B2B1F5077F04DC0522DFF836
:102E50002C335A7054E089B240F27722914204DA5E
:102E60000622DFF818335A704AE089B2B1F5347F90
:102E700004DC0722DFF804335A7041E089B240F2E3
:102E80002B32914204DA0822DFF8F0325A7037E030
:102E900089B2B1F5617F04DC0922DFF8E0325A70B3
:102EA0002EE089B240F2DF32914203DA0A22B34BBC
:102EB0005A7025E089B2B1F5876F03DC0B22AF4B66
:102EC0005A701DE089B240F29342914203DA0C221B
:102ED000AA4B5A7014E089B240F2ED42914203DAF3
:102EE0000D22A64B5A700BE089B240F24752914234
:102EF00003DA0E22A14B5A7002E00F229F4B5A7048
:102F000089B21A2903DA00229C4B9A7069E089B2CF
:102F1000332903DA0122994B9A7062E089B24C2975
:102F200003DA0222954B9A705BE089B2652903DAD5
:102F30000322924B9A7054E089B27E2903DA04226C
:102F40008E4B9A704DE089B2972903DA05228B4B9C
:102F50009A7046E089B2B02903DA0622874B9A704C
:102F60003FE089B2C92903DA0722844B9A7038E01E
:102F700089B2E22903DA0822804B9A7031E089B2E3
:102F8000FB2903DA09227D4B9A702AE089B2B1F558
:102F90008A7F03DA0A22794B9A7022E089B2B1F56E
:102FA000967F03DC0B22754B9A701AE089B2B1F55B
:102FB000A37F03DA0C22714B9A7012E089B2B1F54B
:102FC000AF7F03DC0D226D4B9A700AE089B2B1F538
:102FD000BC7F03DA0E22694B9A7002E00F22674B26
:102FE0009A7089B21A2903DA0022644BDA7069E018
:102FF00089B2332903DA0122604BDA7062E089B2C8
:103000004C2903DA02225D4BDA705BE089B2652954
:1030100003DA0322594BDA7054E089B27E2903DACD
:103020000422564BDA704DE089B2972903DA052263
:10303000524BDA7046E089B2B02903DA06224F4BD0
:10304000DA703FE089B2C92903DA07224B4BDA7004
:1030500038E089B2E22903DA0822484BDA7031E01D
:1030600089B2FB2903DA0922444BDA702AE089B2DB
:10307000B1F58A7F03DA0A22404BDA7022E089B286
:10308000B1F5967F03DC0B223C4BDA701AE089B273
:10309000B1F5A37F03DA0C22384BDA7012E089B263
:1030A000B1F5AF7F03DC0D22344BDA700AE089B250
:1030B000B1F5BC7F03DA0E22304BDA7002E00F224A
:1030C0002E4BDA70704710B50400200040B2FFF7B5
:1030D0007DFE2B48007810F0FD0029490870284833
:1030E000007850F0100026490870B8202549087073
:1030F00025480078C006FBD423480078C0F381003F
:10310000C0B20228F8D11D48C3781C4882781B48F9
:1031100041781A480078FFF755FE174864B210EB63
:103120008400807810F01F0018490870124864B2BB
:1031300010EB8400C07810F01F0050F040001449DC
:103140000870114800788006FBD50F4800784006CB
:10315000FBD50C48007810F03F000A4908700A4877
:103160000078C0F38100C0B20328F8D1024864B2ED
:1031700030F82400C0B210BD400BFF1F840BFF1FAE
:10318000014006400040064006400640044006401C
:1031900005400640012110F01F029140A44A40B2B0
:1031A000430942F82310704780B52A2000F05CF9EB
:1031B00000F0B6FA0220FFF7C5F99E4800680A2120
:1031C00001FB00F1002000F0F9FA0FF22101542078
:1031D00000F043FB4420FFF7DDFF9748018893A0F0
:1031E000FFF7A2FB3220FFF7CCFBF6E710B59348C0
:1031F000006850F001009149086002212A2000F087
:103200003AFA8D4908800220FFF71FFA8C49D1E96C
:10321000002300B2C11710185941894AC2E90001C0
:103220000220FFF728FA87490C008348008800F045
:103230002BFB210000F038FB83490880834800788D
:10324000401C824908708148007801281DD1002166
:103250000C007B4AD2E9000100F0A4FB210000F041
:1032600058FB7B4908807A4800887A490988401AC7
:1032700079490880774800887749B1F900100A2217
:1032800091FBF2F10818754908807048007802280F
:103290000BD1704800887049B1F9001049000A222A
:1032A00091FBF2F108186D490880684800780328FE
:1032B0000DD1684800886849B1F90010032211FB5C
:1032C00002F10A2291FBF2F10818644908805F4874
:1032D000007804280BD15F4800885F49B1F90010DD
:1032E00089000A2291FBF2F108185C4908805748CE
:1032F000007805280DD1574800885749B1F90010CA
:10330000052211FB02F10A2291FBF2F10818534940
:1033100008804E48007806280DD14E4800884E4956
:10332000B1F90010062211FB02F10A2291FBF2F121
:1033300008184A4908804548007807280DD14548B3
:1033400000884549B1F90010072211FB02F10A2259
:1033500091FBF2F10818414908803C4800780828A0
:103360000BD13C4800883C49B1F90010C9000A2241
:1033700091FBF2F10818394908803448007809288F
:103380000DD1344800883449B1F90010092211FBED
:1033900002F10A2291FBF2F10818304908802B480B
:1033A00000780A2814D1002028490870294800888C
:1033B0002949B1F900100A2211FB02F10A2291FBFE
:1033C000F2F1081825490880214800882149088021
:1033D000224800881C490988401A21490880204851
:1033E000B0F90000B0F57A7F03DD4FF47A701C4924
:1033F00008801B48B0F9000010F57A7F02DA1948FE
:10340000174908800C480088B0F5437F0ADD0A4858
:103410000088B0F5757F05DA1148B0F9000000F0BA
:1034200091F902E0002000F08DF910BD25640A003A
:1034300000E100E00C0EFF1F600EFF1F0C71034047
:10344000D80DFF1F00005C44620EFF1F6E0EFF1FB1
:10345000660EFF1F640EFF1F680EFF1F6A0EFF1F20
:103460006C0EFF1F18FCFFFF38B5040064B2651135
:10347000EDB2002D02D0012D11D021E0A34800684B
:1034800050F00060A1490860A148006830F0900049
:103490009F4908609E4800689D49086014E09D4867
:1034A000006850F000609B4908609948006830F45B
:1034B000104097490860964800689549086003E005
:1034C00033219548FFF765F964B22000002800F029
:1034D0008980012800F08680032800F08380082876
:1034E0004ED0092851D00A2854D00B2857D00C2888
:1034F0005AD00D285DD00E2860D00F2863D0102838
:1035000070D0112864D0122867D013286AD01428EC
:1035100068D01A2866D01D2864D01E2862D02028C2
:1035200061D021285FD023285DD024285CD02528B5
:103530005FD0262862D0272865D0282868D029287F
:103540006BD02A286ED02B2871D02C2874D02D282F
:1035500077D02E287AD02F287DD0302800F0858093
:1035600031287DD0322800F0808033287DD0342867
:103570007BD03A2879D03D2877D03E2875D075E0A9
:1035800000212020FFF798F874E000212120FFF7A8
:1035900093F86FE000210720FFF78EF86AE0002122
:1035A0000820FFF789F865E000212220FFF784F862
:1035B00060E000212320FFF77FF85BE0002140203E
:1035C000FFF77AF856E000214120FFF775F851E047
:1035D00000219820FFF770F84CE000219920FFF7B8
:1035E0006BF847E046E045E000218020FFF764F8F3
:1035F00040E000218120FFF75FF83BE000218220BE
:10360000FFF75AF836E000218320FFF755F831E044
:1036100000212020FFF750F82CE000212120FFF7A7
:103620004BF827E000212420FFF746F822E0002194
:103630002520FFF741F81DE000212620FFF73CF888
:1036400018E000212720FFF737F813E000212A2097
:10365000FFF732F80EE000212B20FFF72DF809E0EC
:1036600000211120FFF728F804E003E09A212A48FE
:10367000FFF78FF831BDF8B504000D0064B2661194
:103680000027290049B2200040B200F01CF823486E
:1036900076B250F8260000680006F8D51F4876B2CA
:1036A00050F82600006907001C4876B250F8260042
:1036B000006830F08000194976B251F82610086091
:1036C000380080B2F2BD30B440B2421110F01F0396
:1036D00049B28C0014F00C0454F050040F4D52B257
:1036E00055F82250AC6004240C4D52B255F82250CB
:1036F000EC60DBB213F01F0454F04004074D52B2EB
:1037000055F822502C6030BC704700003C800440CB
:103710001880044030800440904000001004FF1FD7
:1037200080B5012201213720FFF7B4FA01220121DF
:103730003520FFF7AFFA0023642200210020FEF7B6
:10374000C5FD01BD10B5040024B2012C0FDB002221
:1037500001213720FFF79EFA012201213520FFF7D2
:1037600099FA24B2220000210020FEF777FE24B24D
:10377000002C0FD5012201213720FFF78BFA002200
:1037800001213520FFF786FA24B262420021002091
:10379000FEF764FE24B2002C0ED101220121372055
:1037A000FFF778FA012201213520FFF773FA002292
:1037B00000210020FEF752FE10BD000038B50400C5
:1037C0000D00002D03D122211748FEF7E2FF174814
:1037D000006850F400001549086000201449086092
:1037E000681E144964B222015050124864B210EBB2
:1037F0000410C06850F001000E4964B211EB0411CE
:10380000C8600C4864B210EB0410806840084000A7
:10381000084964B211EB041188600320054964B2C1
:1038200011EB0411886031BDB04100003C800440C0
:10383000007003400071034010B504004FF40070A5
:1038400094FBF0F101FB1041002903D01E210B482D
:10385000FEF79FFF0A48046010BD38B504000D0054
:10386000074800680749884203D030210348FEF723
:1038700090FF044864B240F8245031BD704200000B
:1038800008ED00E00000FF1F002800BF0AD0B0FADA
:1038900080F18840D1F19D01C905020672F1004214
:1038A00041EB1020704700002DE9F04104000D00AD
:1038B0002000290000F0A8F807003048006839000F
:1038C00000F016F92D4908602D480068390000F015
:1038D00051F980462B4801682848006800F04AF9F1
:1038E000414600F005F9804638002749096800F094
:1038F0008BF82649096800F03DF9414600F0F8F8D8
:1039000000F0A4F9060020480760300000B2BDE8CE
:10391000F0812DE9F04104000D002000290000F0A5
:1039200073F807001A480068390000F0E1F81849F8
:10393000086018480068390000F01CF980461648F5
:1039400001681348006800F015F9414600F0D0F80E
:10395000804638001149096800F056F81049096896
:1039600000F008F9414600F0C3F800F06FF90600D6
:103970000A480760300000B2BDE8F081F80DFF1F73
:10398000B40BFF1FEC0DFF1FF40DFF1FB80BFF1F43
:10399000000EFF1FBC0BFF1FF00DFF1FFC0DFF1FD4
:1039A000C00BFF1F002940F10B80F4464942404202
:1039B00071F1000100F00AF850F00040604700008B
:1039C00050EA010200F00E80094200BF0BD1B0FAAC
:1039D00080F18840C1F19D01C905020672F10042E3
:1039E00041EB10207047B1FA81F241409040C2F1A2
:1039F000200261FA02F181EA000018BF40F00100E4
:103A000002F19D01E8E7000090EA010F44BF81F058
:103A1000004100F075B800BF431A4FF000423EBFAE
:103A20005340C01AC91800BFD3095FEAD05C13EB3A
:103A3000400F34BFB3EB410F40E07CEBD1530CD3CC
:103A400042EA012122D8D1EB402009D3400A28BF05
:103A50005FEA500140EBCC507047401A15D040024D
:103A6000B0FA80F2521C9040400A4FEA3C23B3EB7C
:103A7000026384BF00EB730007E040F400001A16F5
:103A8000DB07C2F10102D04018437047182BFCDC61
:103A900031FA03F202FA03F3591A38BF42F0010275
:103AA000D2EB40203CBF4000ACF1010C5FEACC5CA3
:103AB000C20572F100414CEB5020704713EB400FF0
:103AC0000FD24B0009D0ACEBD153022B03DB4902E0
:103AD000172BDDDD70479143401A4300D5D10020FC
:103AE000704713EB410FD0D36FF000007047000018
:103AF00090EA010F44BF81F00041FFF78DBF00BF86
:103B0000421A3CBF801A89184FF0004CC0F3C752CC
:103B1000FF2A24D0C1F3C75313B3D21AD2F1190329
:103B200027DD4CEA01214CFA03F321EA0303D140DB
:103B3000C20D4CEA0020401834BF20EA0C004CEAC9
:103B40005000D20553EA006373EB0C0C52EB1020CB
:103B5000420012F1807F38BF7047C00DC00570472A
:103B6000490212BF9A4200EB5120F8E7D2F1170345
:103B7000D9D57047FF2212EAD05C1DBF12EAD1539B
:103B8000944593422BE09C44D30780EA01021A40FB
:103B900043EA002043EA0121A1FB0030410038BF85
:103BA00040007CF17F010BDBFE294ADA5B0842EA28
:103BB000C15153EA006373F1004C51EB1020704780
:103BC000D1F1080CDCF120012FDB5B0810FA01F1C8
:103BD0000B4373F1004120FA0CF0504170479445BB
:103BE0001CBF02EAD153934280EA010202F0004274
:103BF0001DD0400019D0490017D05BB9634514D0DF
:103C00000902B1FA81F39940BCEB030CC00140F00A
:103C10000040C1E70002B0FA80FC10FA0CF0B3EBF0
:103C20000C0CC90141F00041B6E71000704740009C
:103C30000AD0490008D010F1807F94BF11F1807F35
:103C400002E042F0FF407047D04370474100090E48
:103C50007F3915D4D1F11F0114D4400007D2C0011F
:103C600040F00040C84048BF6FF000407047C001BE
:103C700040F00040C8404CBF4FF000404042704709
:103C80000020704700424FF0004058BFC0437047CB
:103C9000DFF800F083290000DFF800F09327000030
:103CA000F0204D4908704C4800780006FBD54A4882
:103CB00000787121084201D0002000E00120704707
:103CC00080B54648006850F40020444908604448E4
:103CD000006850F40020424908603F480078000620
:103CE000FBD5F0203C4908700A20FFF7D1FF01BD49
:103CF00010B582B00400A4B24FF4006000FB04F0E1
:103D000000900920374908709DF802003649087074
:103D10009DF80100354908709DF80000344908708D
:103D2000FFF7BEFF002801D100200CE0A4B2002C58
:103D300008D17FF0010240F20C41200080B200F077
:103D400003F800E0012016BD7CB504000D0016004C
:103D5000A4B24FF40060ADB200FB04500190ADB2CC
:103D6000042095FBF0F101FB1051002903D0EA215A
:103D70002048FFF791FFADB2B5F5006F03DDEC21F0
:103D80001C48FFF789FF9DF80600174908709DF849
:103D90000500164908709DF8040015490870009642
:103DA0009DF80300144908709DF80200134908703B
:103DB0009DF80100124908709DF800001149087033
:103DC000062008490870FFF76BFF002801D100208A
:103DD00000E0012076BD00000000024004F0014038
:103DE00008F00140070002400600024005000240C2
:103DF00004000240C83F00000B0002400A000240DD
:103E00000900024008000240F0B4114E3668340048
:103E10000F4E366856F47F060D4F3E600E0616F0C4
:103E2000706656EA0076170517F470073E431F04C4
:103E300017F470273E43074F3E6000263500EDB271
:103E40009D4201D26D1CFAE7014E3460F0BC704710
:103E500000F001404480044080B500F095F800F087
:103E60002AF800F00AF8FEF7B1FC01220121042033
:103E7000FEF710FFFFF798F9FEE780B50D20FFF77A
:103E800022F933490860324800684FF47A71484398
:103E9000304908602F4800682F490968C1F3036161
:103EA000491CB0FBF1F02D4908605FF4E1310420BA
:103EB000FEF77EFD01BD2DE9F843294829498842D6
:103EC0000DD000208046B8F5826F08D2254850F802
:103ED0002800234941F8280018F10108F3E7204899
:103EE000FFF7AAFC204807002048060020480400ED
:103EF000A01B80464046B0F10108002804D030786D
:103F00003870761C7F1CF5E71A4881461A48050070
:103F1000B5EB090080464046B0F10108002805D005
:103F2000002089F8000019F10109F4E71348144949
:103F3000144A531A98464346B3F10108002B04D0A3
:103F40000B780370491C401CF5E7BDE8F1830000C5
:103F5000080EFF1F040EFF1F448004400C0EFF1FBD
:103F60000000FF1F000000001004FF1FB419000034
:103F7000B4210000D80DFF1F700EFF1F100CFF1F93
:103F8000903C0000583E000080B500F008F80C4856
:103F900000884FF6FE7108400949088001BDEFF323
:103FA000118072B64CF22051064A11804DF628114C
:103FB000044A1180C0B2002800D162B670470000E8
:103FC000002005400E200540443A5C546563686E4D
:103FD0006963616C446174615C436F6E74726F6C91
:103FE0005CBFD8D6C6CAB5BCF9202D20B5B9C1A2D0
:103FF000B0DA5CD2BBBDD7D4B2D6DCB5B9C1A2B001
:10400000DA202D20D6B1C1A2BBB7BCD3CEBBD6C35C
:10401000BBB75C436869705C7372635C4D4B363050
:104020005F666C6173682E6300000000443A5C5464
:104030006563686E6963616C446174615C436F6E53
:1040400074726F6C5CBFD8D6C6CAB5BCF9202D207F
:10405000B5B9C1A2B0DA5CD2BBBDD7D4B2D6DCB59B
:10406000B9C1A2B0DA202D20D6B1C1A2BBB7BCD352
:10407000CEBBD6C3BBB75C436869705C7372635CCC
:104080004D4B36305F5379735469636B2E63000078
:10409000443A5C546563686E6963616C4461746141
:1040A0005C436F6E74726F6C5CBFD8D6C6CAB5BC09
:1040B000F9202D20B5B9C1A2B0DA5CD2BBBDD7D4EE
:1040C000B2D6DCB5B9C1A2B0DA202D20D6B1C1A2DA
:1040D000BBB7BCD3CEBBD6C3BBB75C436869705C0F
:1040E0007372635C4D4B36305F6164632E63000016
:1040F000443A5C546563686E6963616C44617461E1
:104100005C436F6E74726F6C5CBFD8D6C6CAB5BCA8
:10411000F9202D20B5B9C1A2B0DA5CD2BBBDD7D48D
:10412000B2D6DCB5B9C1A2B0DA202D20D6B1C1A279
:10413000BBB7BCD3CEBBD6C3BBB75C436869705CAE
:104140007372635C4D4B36305F66746D2E63000096
:10415000443A5C546563686E6963616C4461746180
:104160005C436F6E74726F6C5CBFD8D6C6CAB5BC48
:10417000F9202D20B5B9C1A2B0DA5CD2BBBDD7D42D
:10418000B2D6DCB5B9C1A2B0DA202D20D6B1C1A219
:10419000BBB7BCD3CEBBD6C3BBB75C436869705C4E
:1041A0007372635C4D4B36305F6770696F2E6300CE
:1041B000443A5C546563686E6963616C4461746120
:1041C0005C436F6E74726F6C5CBFD8D6C6CAB5BCE8
:1041D000F9202D20B5B9C1A2B0DA5CD2BBBDD7D4CD
:1041E000B2D6DCB5B9C1A2B0DA202D20D6B1C1A2B9
:1041F000BBB7BCD3CEBBD6C3BBB75C436869705CEE
:104200007372635C4D4B36305F5049542E6300002F
:10421000443A5C546563686E6963616C44617461BF
:104220005C436F6E74726F6C5CBFD8D6C6CAB5BC87
:10423000F9202D20B5B9C1A2B0DA5CD2BBBDD7D46C
:10424000B2D6DCB5B9C1A2B0DA202D20D6B1C1A258
:10425000BBB7BCD3CEBBD6C3BBB75C436869705C8D
:104260007372635C4D4B36305F756172742E630000
:10427000443A5C546563686E6963616C446174615F
:104280005C436F6E74726F6C5CBFD8D6C6CAB5BC27
:10429000F9202D20B5B9C1A2B0DA5CD2BBBDD7D40C
:1042A000B2D6DCB5B9C1A2B0DA202D20D6B1C1A2F8
:1042B000BBB7BCD3CEBBD6C3BBB75C436869705C2D
:1042C0007372635C6D6973632E6300000A2A2A2A85
:1042D0002A64656661756C745F69737220656E74BB
:1042E00065726564206F6E20766563746F72202539
:1042F000642A2A2A2A2A0A0A257320496E746572BA
:10430000727570740000000010B5074979441831C7
:10431000064C7C44163404E00A68081D511888478E
:104320000146A142F8D110BD2C0000003800000069
:10433000417373657274696F6E206661696C656440
:1043400020696E202573206174206C696E652025BC
:10435000640A0000B3CCFFFF98000000D80DFF1FD7
:10436000000000000ABDF8D0D0BDE2CBF8B2D9D72A
:10437000F7A3ACC7EBD6D8D0C2CBA2C8EBB9CCBCA4
:10438000FE00000000F00BF8002801D0FFF7BCFF92
:104390000020C046C046FEF707FF00F002F80120EB
:1043A000704700F001B800000746384600F002F8F8
:1043B000FBE700002021090326311820ABBEF9E7F6
:1043C00038B504460D46284600F006F8A84218BF46
:1043D0000024204632BD00000149FEF7EDB900BFC0
:1043E000D00BFF1F0ABDF8C8EBCBC0D1ADBBB7B532
:1043F000C8B4FDA3A1000000C046C046C046C046E8
:10440000FFF7C0FF000000000000000000000000F7
:10441000000000000000000000000000000000009C
:10442000FFFFFFFFFFFFFFFF000000000000000094
:10443000000000000000000000000000000000007C
:10444000000000000000000000000000FFFFFFFF70
:10445000FFFF00000000000000000000000000005E
:10446000000000000000000000000000000000004C
:10447000000000000000000000000000000000003C
:0C44800000000000000000000000000030
:04000005000043F9BB
:00000001FF
